:060000000200090201A547
:1C006200750800E4F509F50A750B20750C01750D01750E01750F80F510020006EA
:0300060002007E77
:20007E0012015EE50860FC75130075828E1201EE7513807582801201EE751188751213E58D
:20009E00114512700302013AAE11AF12EE24FFF511EF34FFF51230B3E6750906750A00E5B9
:2000BE0009450A70DA30B30EAE09AF0AEE24FFF509EF34FFF50A30B4E6AE09AF0ABE0105F1
:2000DE00BF0002804EBE0205BF0002803EBE0305BF0002802EBE0405BF0002801EBE05050C
:2000FE00BF0002800EBE06B7BF00B430B4B112027680AC30B4A91202E580A430B4A1120316
:20011E0002809C30B499120333809430B491120346808C30B4891203770200BD7513007539
:20013E0082801201EE75138075828E1201EEE508B40100E433FF8F08E4F511F5120200814D
:20015E00C2B3C2B4C2B5C294C293C29290000112017A758801D2A8D2AFD2B822AE82AF83FB
:20017E007C017D00C3EE9CEF9D401B7A7D7B00EA24FFF8EB34FFF988028903E84970F00CF2
:20019E00BC00E10D80DE22C020C0E0C0F0C082C083C007C006C005C004C003C002C001C046
:2001BE0000C0D075D000C2AF75080190000112017AD2AFD0D0D000D001D002D003D004D034
:2001DE0005D006D007D083D082D0F0D0E0D02032AF82D2947E00EF30E004D2938002C293C4
:2001FE00D292C292EFC313FF0EBE080040E87F00E51330E004D2938002C293D292C292E505
:20021E0013C313F5130FBF080040E5C29422AF82D2947E00EF30E004D2938002C293D292A4
:20023E00C292EFC313FF0EBE070040E8EF30E004D2938002C293D2927F007E00D292A29354
:20025E00E433035480FDEFC3134DFFC2920EBE080040E9C2948F8222050B740AB50B0675E1
:20027E000B100202DC741AB50B06750B200202DC742AB50B05750B308044743AB50B0575D2
:20029E000B40803A744AB50B05750B508030745AB50B05750B608026746AB50B05750B708C
:2002BE00801C747AB50B05750B808012748AB50B05750B908008749AB50B03750B00850B03
:2002DE001375828C0201EE050C740AB50C05750C1080087413B50C03750C01850C137582A3
:2002FE00880201EE050D740AB50D05750D10801C741AB50D05750D208012742AB50D05757F
:20031E000D3080087432B50D03750D01850D137582860201EE050E7408B50E03750E01859B
:20033E000E1375828A0201EE050F748AB50F05750F90801C7493B50F05750FA1801274AADC
:20035E00B50F05750FB0800874B3B50F03750F80850F137582840201EE0510740AB5100598
:20037E007510108030741AB510057510208026742AB51005751030801C743AB510057510C1
:1E039E00408012744AB510057510508008745AB510037510008510137582820201EE5D
:06003800E478FFF6D8FD9C
:200016007900E94400601B7A009003C0780175A000E493F2A308B8000205A0D9F4DAF275CD
:02003600A0FF29
:20003E007800E84400600A790175A000E4F309D8FC7800E84400600C7900900001E4F0A3C0
:04005E00D8FCD9FAF7
:0D0009007581201203BCE582600302000631
:0403BC007582002224
:00000001FF
