:0600000002000902015795
:1B006200750800750900750A20750B01750C01750D01750E80750F00020006D4
:0300060002007D78
:20007D00E50860FC75100075828E1201A07510807582801201A030B3E7E50924FA4065E5CE
:20009D000975F003A49000A6730200B80200C00200C80200D00200D80200E030B446120273
:2000BD002880F830B43E12029780F830B4361202B480F830B42E1202E580F830B426120243
:2000DD00F880F830B4031203290509AE09E45403A2E0CE13CE13A2E0CE13CE13CEFF4E606B
:2000FD00037509007510007582801201A075108075828E1201A002007DC2B3C2B4C2B59005
:20011D00000112012C758801D2A8D2AFD2B822AE82AF837C017D00C3EE9CEF9D401B7A7D56
:20013D007B00EA24FFF8EB34FFF988028903E84970F00CBC00E10D80DE22C020C0E0C0F0FE
:20015D00C082C083C007C006C005C004C003C002C001C000C0D075D000C2AF75080190008D
:20017D000112012CD2AFD0D0D000D001D002D003D004D005D006D007D083D082D0F0D0E050
:20019D00D02032AF82D2947E00EF30E004D2938002C293D292C292EFC313FF0EBE0800403C
:2001BD00E87F00E51030E004D2938002C293D292C292E510C313F5100FBF080040E5C2949D
:2001DD0022AF82D2947E00EF30E004D2938002C293D292C292EFC313FF0EBE070040E8EF26
:2001FD0030E004D2938002C293D2927F007E00D292A293E433035480FDEFC3134DFFC29248
:20021D000EBE080040E9C2948F8222050A740AB50A06750A1002028E741AB50A06750A20D6
:20023D0002028E742AB50A05750A308044743AB50A05750A40803A744AB50A05750A50807E
:20025D0030745AB50A05750A608026746AB50A05750A70801C747AB50A05750A8080127456
:20027D008AB50A05750A908008749AB50A03750A00850A1075828C0201A0050B740AB50B1A
:20029D0005750B1080087413B50B03750B01850B107582880201A0050C740AB50C05750CC1
:2002BD0010801C741AB50C05750C208012742AB50C05750C3080087432B50C03750C0185E0
:2002DD000C107582860201A0050D7408B50D03750D01850D1075828A0201A0050E748AB563
:2002FD000E05750E90801C7493B50E05750EA1801274AAB50E05750EB0800874B3B50E030C
:20031D00750E80850E107582840201A0050F740AB50F05750F108030741AB50F05750F2062
:20033D008026742AB50F05750F30801C743AB50F05750F408012744AB50F05750F50800893
:11035D00745AB50F03750F00850F107582820201A0B6
:06003800E478FFF6D8FD9C
:200016007900E94400601B7A00900372780175A000E493F2A308B8000205A0D9F4DAF2751B
:02003600A0FF29
:20003E007800E84400600A790175A000E4F309D8FC7800E84400600C7900900001E4F0A3C0
:04005E00D8FCD9FAF7
:0D00090075812012036EE58260030200067F
:04036E007582002272
:00000001FF
