:0400000002001132B7
:03000B00020141AE
:20006A00750800750900750A20750B01750C01750D01750E80750F0075100075110075123D
:20008A0000751300751440751579751624751730751819751912751A02751B78751C0075B2
:0B00AA001D10751E00751F0002000EE7
:03000E000200B538
:2000B5001200C1E50860FC1201E880F7C294C293C292758901C28D758CEC758A7875A8824D
:2000D50075B802D28C900001120116850F20758282120160850E20758284120160850C20D2
:2000F500758286120160850B20758288120160850D2075828A120160850A2075828C02017E
:2001150060AE82AF837C017D00C3EE9CEF9D401B7A7D7B00EA24FFF8EB34FFF98802890336
:20013500E84970F00CBC00E10D80DE22C0E0C0D07508010509E50924FC5003750900758C47
:20015500EC758A78D2AFD0D0D0E032AF82D2947E00EF30E004D2938002C293D292C292EF29
:20017500C313FF0EBE080040E87F00E52030E004D2938002C293D292C292E520C313F5201D
:200195000FBF080040E5C29422AF82D2947E00EF30E004D2938002C293D292C292EFC31306
:2001B500FF0EBE070040E8EF30E004D2938002C293D2927F007E00D292A293E43303548009
:2001D500FDEFC3134DFFC2920EBE080040E9C2948F8222E509701875828512019EE582F523
:2001F5001EC45401F51075800E2414F98790227401B5091775828512019EE582F51E540FED
:20021500F51175800D2414F98790227402B5091C75828312019EE582F51FC4540FFF7407C0
:200235005FF51275800B2414F98790227403B5091675828312019EE582F51F540FF5137508
:0802550080072414F9879022B0
:06004000E478FFF6D8FD94
:20001E007900E94400601B7A00900261780175A000E493F2A308B8000205A0D9F4DAF27525
:02003E00A0FF21
:200046007800E84400600A790175A000E4F309D8FC7800E84400600C7900900001E4F0A3B8
:04006600D8FCD9FAEF
:0D00110075812012025DE582600302000E81
:04025D007582002284
:00000001FF
