:0400000002001132B7
:03000B000200FAF6
:20006A0075083F750906750A5B750B4F750C67750D6D750E7D750F0775107F75116F7512AB
:1E008A0000751300E4F514F515F516F517F518F519F51AF51BF51CF51DF51E02000E42
:03000E000200A845
:2000A800D2A6D2A51200E6E514451560FA12012974F4B516137401B5170EAE1C7F00630621
:2000C800808E1CE4F516F51712013CE5144515B40100E433FF8F143395E0F51580C97589EA
:2000E80001C28D758AFC758C1775A88275B802D28C22C0E0C007C006C0D075D000751401BB
:20010800751500AE16AF1774012EF516E43FF517758AFC758C17D2AFD0D0D006D007D0E055
:200128003275121275135085091B85271C850D1D85671E22C2A67518407519C0751A8FE443
:20014800F51FF520C3E51F9408E520648094805024C2A5E51830E004D2A68002C2A6D2A549
:20016800E518C313F518AE1FAF2074012EF51FE43FF52080CFC2A530A60122D2A5C2A5D2AD
:20018800A5D2A6C2A6E4F51FF520C3E51F9408E520648094805024C2A5E51930E004D2A600
:2001A8008002C2A6D2A5E519C313F519AE1FAF2074012EF51FE43FF52080CFC2A530A601DC
:2001C80022D2A5E4F51FF520C3E51F9408E520648094805024C2A5E51B30E004D2A6800228
:2001E800C2A6D2A5E51BC313F51BAE1FAF2074012EF51FE43FF52080CFC2A530A60122D226
:20020800A5E4F51FF520C3E51F9408E520648094805024C2A5E51C30E004D2A68002C2A672
:20022800D2A5E51CC313F51CAE1FAF2074012EF51FE43FF52080CFC2A530A60122D2A5E4C2
:20024800F51FF520C3E51F9408E520648094805024C2A5E51D30E004D2A68002C2A6D2A543
:20026800E51DC313F51DAE1FAF2074012EF51FE43FF52080CFC2A530A60122D2A5E4F51FE3
:20028800F520C3E51F9408E520648094805024C2A5E51E30E004D2A68002C2A6D2A5E51E13
:2002A800C313F51EAE1FAF2074012EF51FE43FF52080CFC2A530A60122D2A5C2A5D2A5D2EC
:2002C800A6C2A6E4F51FF520C3E51F9408E520648094805024C2A5E51A30E004D2A68002B3
:2002E800C2A6D2A5E51AC313F51AAE1FAF2074012EF51FE43FF52080CFC2A530A60122D227
:08030800A5C2A5D2A5D2A622D0
:06004000E478FFF6D8FD94
:20001E007900E94400601B7A00900314780175A000E493F2A308B8000205A0D9F4DAF27571
:02003E00A0FF21
:200046007800E84400600A790175A000E4F309D8FC7800E84400600C7900900001E4F0A3B8
:04006600D8FCD9FAEF
:0D001100758120120310E582600302000ECD
:0403100075820022D0
:00000001FF
